{
  "contractName": "Vehicledata",
  "abi": [
    {
      "constant": true,
      "inputs": [
        {
          "name": "",
          "type": "address"
        },
        {
          "name": "",
          "type": "uint256"
        }
      ],
      "name": "vehicleDataEntries",
      "outputs": [
        {
          "name": "sensorData",
          "type": "uint256"
        },
        {
          "name": "timestamp",
          "type": "uint256"
        }
      ],
      "payable": false,
      "stateMutability": "view",
      "type": "function"
    },
    {
      "constant": true,
      "inputs": [
        {
          "name": "",
          "type": "address"
        },
        {
          "name": "",
          "type": "uint256"
        }
      ],
      "name": "userDataEntries",
      "outputs": [
        {
          "name": "",
          "type": "uint256"
        }
      ],
      "payable": false,
      "stateMutability": "view",
      "type": "function"
    },
    {
      "constant": false,
      "inputs": [
        {
          "name": "inputSensorData",
          "type": "uint256"
        },
        {
          "name": "inputTimestamp",
          "type": "uint256"
        }
      ],
      "name": "storeSensorData",
      "outputs": [],
      "payable": false,
      "stateMutability": "nonpayable",
      "type": "function"
    },
    {
      "constant": true,
      "inputs": [
        {
          "name": "vehicleIdentity",
          "type": "address"
        }
      ],
      "name": "countEntriesOfAddress",
      "outputs": [
        {
          "name": "counter",
          "type": "uint256"
        }
      ],
      "payable": false,
      "stateMutability": "view",
      "type": "function"
    },
    {
      "constant": true,
      "inputs": [],
      "name": "owner",
      "outputs": [
        {
          "name": "",
          "type": "address"
        }
      ],
      "payable": false,
      "stateMutability": "view",
      "type": "function"
    },
    {
      "constant": false,
      "inputs": [
        {
          "name": "userIdentity",
          "type": "address"
        }
      ],
      "name": "evaluateDriverBehaviour",
      "outputs": [],
      "payable": false,
      "stateMutability": "nonpayable",
      "type": "function"
    },
    {
      "inputs": [],
      "payable": false,
      "stateMutability": "nonpayable",
      "type": "constructor"
    }
  ],
  "bytecode": "0x6060604052341561000f57600080fd5b33600260006101000a81548173ffffffffffffffffffffffffffffffffffffffff021916908373ffffffffffffffffffffffffffffffffffffffff16021790555061051b8061005f6000396000f300606060405260043610610078576000357c0100000000000000000000000000000000000000000000000000000000900463ffffffff1680631130338b1461007d5780633cced904146100da578063735d91cb146101305780638171aee01461015c5780638da5cb5b146101a9578063f9788344146101fe575b600080fd5b341561008857600080fd5b6100bd600480803573ffffffffffffffffffffffffffffffffffffffff16906020019091908035906020019091905050610237565b604051808381526020018281526020019250505060405180910390f35b34156100e557600080fd5b61011a600480803573ffffffffffffffffffffffffffffffffffffffff16906020019091908035906020019091905050610277565b6040518082815260200191505060405180910390f35b341561013b57600080fd5b61015a60048080359060200190919080359060200190919050506102a8565b005b341561016757600080fd5b610193600480803573ffffffffffffffffffffffffffffffffffffffff16906020019091905050610343565b6040518082815260200191505060405180910390f35b34156101b457600080fd5b6101bc610391565b604051808273ffffffffffffffffffffffffffffffffffffffff1673ffffffffffffffffffffffffffffffffffffffff16815260200191505060405180910390f35b341561020957600080fd5b610235600480803573ffffffffffffffffffffffffffffffffffffffff169060200190919050506103b7565b005b60006020528160005260406000208181548110151561025257fe5b9060005260206000209060020201600091509150508060000154908060010154905082565b60016020528160005260406000208181548110151561029257fe5b9060005260206000209001600091509150505481565b60003390506000808273ffffffffffffffffffffffffffffffffffffffff1673ffffffffffffffffffffffffffffffffffffffff16815260200190815260200160002080548060010182816102fd919061043d565b9160005260206000209060020201600060408051908101604052808781526020018681525090919091506000820151816000015560208201518160010155505050505050565b60008060008373ffffffffffffffffffffffffffffffffffffffff1673ffffffffffffffffffffffffffffffffffffffff168152602001908152602001600020805490509050809050919050565b600260009054906101000a900473ffffffffffffffffffffffffffffffffffffffff1681565b60006001600a6001430340600190048115156103cf57fe5b06019050600160008373ffffffffffffffffffffffffffffffffffffffff1673ffffffffffffffffffffffffffffffffffffffff1681526020019081526020016000208054806001018281610424919061046f565b9160005260206000209001600083909190915055505050565b81548183558181151161046a57600202816002028360005260206000209182019101610469919061049b565b5b505050565b8154818355818115116104965781836000526020600020918201910161049591906104ca565b5b505050565b6104c791905b808211156104c3576000808201600090556001820160009055506002016104a1565b5090565b90565b6104ec91905b808211156104e85760008160009055506001016104d0565b5090565b905600a165627a7a72305820aaca4d41ab3c4e0aa02abf2693fcb3a26858e17c289c2136cb9fe99dd6b393ae0029",
  "source": "pragma solidity ^0.4.17;\n\ncontract Vehicledata {\n\nstruct VehicleDataEntry {\n    uint sensorData;\n    uint timestamp;\n}\n\nmapping(address => VehicleDataEntry[]) public vehicleDataEntries;\nmapping(address => uint[]) public userDataEntries;\naddress public owner;\n\nfunction Vehicledata() public {\n    owner = msg.sender;\n}\n\nfunction storeSensorData(uint inputSensorData, uint inputTimestamp) public {\n    var vehicleIdentity = msg.sender;\n    vehicleDataEntries[vehicleIdentity].push(VehicleDataEntry({\n        sensorData: inputSensorData,\n        timestamp: inputTimestamp\n    }));\n}\n\nfunction countEntriesOfAddress(address vehicleIdentity) public constant returns(uint counter) {\n    counter = vehicleDataEntries[vehicleIdentity].length;\n    return counter;\n}\n\nfunction evaluateDriverBehaviour(address userIdentity) public {\n    uint random_number = uint(block.blockhash(block.number-1))%10 + 1;\n    userDataEntries[userIdentity].push(random_number);\n}\n\n}",
  "sourcePath": "/Users/Kati/Documents/TU_Berlin/00_WiSe_2017_2018/Blockchain_Hackathon/blockchain-hackathon/blockhack/contracts/VehicleData.sol",
  "compiler": {
    "name": "solc",
    "version": "0.4.18+commit.9cf6e910.Emscripten.clang"
  },
  "schemaVersion": "1.0.1",
  "updatedAt": "2018-02-04T00:29:34.967Z"
}