{
  "contractName": "Vehicledata",
  "abi": [
    {
      "constant": true,
      "inputs": [
        {
          "name": "",
          "type": "address"
        },
        {
          "name": "",
          "type": "uint256"
        }
      ],
      "name": "vehicleDataEntries",
      "outputs": [
        {
          "name": "sensorData",
          "type": "uint256"
        },
        {
          "name": "timestamp",
          "type": "uint256"
        }
      ],
      "payable": false,
      "stateMutability": "view",
      "type": "function"
    },
    {
      "constant": false,
      "inputs": [
        {
          "name": "inputSensorData",
          "type": "uint256"
        },
        {
          "name": "inputTimestamp",
          "type": "uint256"
        }
      ],
      "name": "storeSensorData",
      "outputs": [],
      "payable": false,
      "stateMutability": "nonpayable",
      "type": "function"
    },
    {
      "constant": true,
      "inputs": [],
      "name": "owner",
      "outputs": [
        {
          "name": "",
          "type": "address"
        }
      ],
      "payable": false,
      "stateMutability": "view",
      "type": "function"
    },
    {
      "inputs": [],
      "payable": false,
      "stateMutability": "nonpayable",
      "type": "constructor"
    }
  ],
  "bytecode": "0x6060604052341561000f57600080fd5b33600160006101000a81548173ffffffffffffffffffffffffffffffffffffffff021916908373ffffffffffffffffffffffffffffffffffffffff1602179055506102c88061005f6000396000f300606060405260043610610057576000357c0100000000000000000000000000000000000000000000000000000000900463ffffffff1680631130338b1461005c578063735d91cb146100b95780638da5cb5b146100e5575b600080fd5b341561006757600080fd5b61009c600480803573ffffffffffffffffffffffffffffffffffffffff1690602001909190803590602001909190505061013a565b604051808381526020018281526020019250505060405180910390f35b34156100c457600080fd5b6100e3600480803590602001909190803590602001909190505061017a565b005b34156100f057600080fd5b6100f8610215565b604051808273ffffffffffffffffffffffffffffffffffffffff1673ffffffffffffffffffffffffffffffffffffffff16815260200191505060405180910390f35b60006020528160005260406000208181548110151561015557fe5b9060005260206000209060020201600091509150508060000154908060010154905082565b60003390506000808273ffffffffffffffffffffffffffffffffffffffff1673ffffffffffffffffffffffffffffffffffffffff16815260200190815260200160002080548060010182816101cf919061023b565b9160005260206000209060020201600060408051908101604052808781526020018681525090919091506000820151816000015560208201518160010155505050505050565b600160009054906101000a900473ffffffffffffffffffffffffffffffffffffffff1681565b81548183558181151161026857600202816002028360005260206000209182019101610267919061026d565b5b505050565b61029991905b8082111561029557600080820160009055600182016000905550600201610273565b5090565b905600a165627a7a7230582000c63d19dc7f0a4548255f364b5572bea2a6f8bf83e0e46eb1c44c2b8225d45c0029",
  "source": "pragma solidity ^0.4.17;\n\ncontract Vehicledata {\n\nstruct VehicleDataEntry {\n    uint sensorData;\n    uint timestamp;\n}\n\nmapping(address => VehicleDataEntry[]) public vehicleDataEntries;\n// mapping(bytes32 => address) public mappedVinToKeyEntries;\naddress public owner;\n\nfunction Vehicledata() public {\n    owner = msg.sender;\n}\n\nfunction storeSensorData(uint inputSensorData, uint inputTimestamp) public {\n    var vehicleIdentity = msg.sender;\n    vehicleDataEntries[vehicleIdentity].push(VehicleDataEntry({\n        sensorData: inputSensorData,\n        timestamp: inputTimestamp\n    }));\n}\n\n\n\n}\n",
  "sourcePath": "/Users/Kati/Documents/TU_Berlin/00_WiSe_2017_2018/Blockchain_Hackathon/blockchain-hackathon/contracts/Vehicledata.sol",
  "compiler": {
    "name": "solc",
    "version": "0.4.18+commit.9cf6e910.Emscripten.clang"
  },
  "schemaVersion": "1.0.1",
  "updatedAt": "2018-02-03T21:06:57.664Z"
}